{
  "contracts/Counter.sol": {
    "Counter": {
      "abi": [
        {
          "inputs": [],
          "name": "counter",
          "outputs": [
            {
              "internalType": "uint256",
              "name": "",
              "type": "uint256"
            }
          ],
          "stateMutability": "view",
          "type": "function"
        },
        {
          "inputs": [],
          "name": "decrement",
          "outputs": [],
          "stateMutability": "nonpayable",
          "type": "function"
        },
        {
          "inputs": [],
          "name": "getCounter",
          "outputs": [
            {
              "internalType": "uint256",
              "name": "",
              "type": "uint256"
            }
          ],
          "stateMutability": "view",
          "type": "function"
        },
        {
          "inputs": [],
          "name": "increment",
          "outputs": [],
          "stateMutability": "nonpayable",
          "type": "function"
        },
        {
          "inputs": [],
          "name": "resetCounter",
          "outputs": [],
          "stateMutability": "nonpayable",
          "type": "function"
        },
        {
          "inputs": [
            {
              "internalType": "uint256",
              "name": "_counter",
              "type": "uint256"
            }
          ],
          "name": "setCounter",
          "outputs": [],
          "stateMutability": "nonpayable",
          "type": "function"
        }
      ],
      "evm": {
        "bytecode": {
          "linkReferences": {},
          "object": "608060405234801561001057600080fd5b506101d8806100206000396000f3fe608060405234801561001057600080fd5b50600436106100725760003560e01c80638bb5d9c3116100505780638bb5d9c3146100a4578063d09de08a146100b7578063dbdf7fce146100bf57600080fd5b80632baeceb71461007757806361bc221a146100815780638ada066e1461009c575b600080fd5b61007f6100c8565b005b61008a60005481565b60405190815260200160405180910390f35b60005461008a565b61007f6100b23660046100ed565b600055565b61007f6100de565b61007f60008055565b6000805490806100d783610135565b9190505550565b6000805490806100d78361016a565b6000602082840312156100ff57600080fd5b5035919050565b7f4e487b7100000000000000000000000000000000000000000000000000000000600052601160045260246000fd5b60008161014457610144610106565b507fffffffffffffffffffffffffffffffffffffffffffffffffffffffffffffffff0190565b60007fffffffffffffffffffffffffffffffffffffffffffffffffffffffffffffffff820361019b5761019b610106565b506001019056fea26469706673582212203e9fc813dd3749c62cdad6cf22cbb1e32f82cd1691ef7507a744583b7e580cec64736f6c63430008180033",
          "opcodes": "PUSH1 0x80 PUSH1 0x40 MSTORE CALLVALUE DUP1 ISZERO PUSH2 0x10 JUMPI PUSH1 0x0 DUP1 REVERT JUMPDEST POP PUSH2 0x1D8 DUP1 PUSH2 0x20 PUSH1 0x0 CODECOPY PUSH1 0x0 RETURN INVALID PUSH1 0x80 PUSH1 0x40 MSTORE CALLVALUE DUP1 ISZERO PUSH2 0x10 JUMPI PUSH1 0x0 DUP1 REVERT JUMPDEST POP PUSH1 0x4 CALLDATASIZE LT PUSH2 0x72 JUMPI PUSH1 0x0 CALLDATALOAD PUSH1 0xE0 SHR DUP1 PUSH4 0x8BB5D9C3 GT PUSH2 0x50 JUMPI DUP1 PUSH4 0x8BB5D9C3 EQ PUSH2 0xA4 JUMPI DUP1 PUSH4 0xD09DE08A EQ PUSH2 0xB7 JUMPI DUP1 PUSH4 0xDBDF7FCE EQ PUSH2 0xBF JUMPI PUSH1 0x0 DUP1 REVERT JUMPDEST DUP1 PUSH4 0x2BAECEB7 EQ PUSH2 0x77 JUMPI DUP1 PUSH4 0x61BC221A EQ PUSH2 0x81 JUMPI DUP1 PUSH4 0x8ADA066E EQ PUSH2 0x9C JUMPI JUMPDEST PUSH1 0x0 DUP1 REVERT JUMPDEST PUSH2 0x7F PUSH2 0xC8 JUMP JUMPDEST STOP JUMPDEST PUSH2 0x8A PUSH1 0x0 SLOAD DUP2 JUMP JUMPDEST PUSH1 0x40 MLOAD SWAP1 DUP2 MSTORE PUSH1 0x20 ADD PUSH1 0x40 MLOAD DUP1 SWAP2 SUB SWAP1 RETURN JUMPDEST PUSH1 0x0 SLOAD PUSH2 0x8A JUMP JUMPDEST PUSH2 0x7F PUSH2 0xB2 CALLDATASIZE PUSH1 0x4 PUSH2 0xED JUMP JUMPDEST PUSH1 0x0 SSTORE JUMP JUMPDEST PUSH2 0x7F PUSH2 0xDE JUMP JUMPDEST PUSH2 0x7F PUSH1 0x0 DUP1 SSTORE JUMP JUMPDEST PUSH1 0x0 DUP1 SLOAD SWAP1 DUP1 PUSH2 0xD7 DUP4 PUSH2 0x135 JUMP JUMPDEST SWAP2 SWAP1 POP SSTORE POP JUMP JUMPDEST PUSH1 0x0 DUP1 SLOAD SWAP1 DUP1 PUSH2 0xD7 DUP4 PUSH2 0x16A JUMP JUMPDEST PUSH1 0x0 PUSH1 0x20 DUP3 DUP5 SUB SLT ISZERO PUSH2 0xFF JUMPI PUSH1 0x0 DUP1 REVERT JUMPDEST POP CALLDATALOAD SWAP2 SWAP1 POP JUMP JUMPDEST PUSH32 0x4E487B7100000000000000000000000000000000000000000000000000000000 PUSH1 0x0 MSTORE PUSH1 0x11 PUSH1 0x4 MSTORE PUSH1 0x24 PUSH1 0x0 REVERT JUMPDEST PUSH1 0x0 DUP2 PUSH2 0x144 JUMPI PUSH2 0x144 PUSH2 0x106 JUMP JUMPDEST POP PUSH32 0xFFFFFFFFFFFFFFFFFFFFFFFFFFFFFFFFFFFFFFFFFFFFFFFFFFFFFFFFFFFFFFFF ADD SWAP1 JUMP JUMPDEST PUSH1 0x0 PUSH32 0xFFFFFFFFFFFFFFFFFFFFFFFFFFFFFFFFFFFFFFFFFFFFFFFFFFFFFFFFFFFFFFFF DUP3 SUB PUSH2 0x19B JUMPI PUSH2 0x19B PUSH2 0x106 JUMP JUMPDEST POP PUSH1 0x1 ADD SWAP1 JUMP INVALID LOG2 PUSH5 0x6970667358 0x22 SLT KECCAK256 RETURNDATACOPY SWAP16 0xC8 SGT 0xDD CALLDATACOPY BLOBHASH 0xC6 0x2C 0xDA 0xD6 0xCF 0x22 0xCB 0xB1 0xE3 0x2F DUP3 0xCD AND SWAP2 0xEF PUSH22 0x7A744583B7E580CEC64736F6C634300081800330000 "
        },
        "methodIdentifiers": {
          "counter()": "61bc221a",
          "decrement()": "2baeceb7",
          "getCounter()": "8ada066e",
          "increment()": "d09de08a",
          "resetCounter()": "dbdf7fce",
          "setCounter(uint256)": "8bb5d9c3"
        }
      }
    }
  }
}