{
  "contracts/Faucet.sol": {
    "Faucet": {
      "abi": [
        {
          "inputs": [
            {
              "internalType": "address payable",
              "name": "_owner",
              "type": "address"
            },
            {
              "internalType": "uint256",
              "name": "_withdrawableValue",
              "type": "uint256"
            }
          ],
          "stateMutability": "payable",
          "type": "constructor"
        },
        {
          "inputs": [
            {
              "internalType": "uint256",
              "name": "withdrawAmount",
              "type": "uint256"
            },
            {
              "internalType": "uint256",
              "name": "availableAmount",
              "type": "uint256"
            }
          ],
          "name": "FaucetOutOfFunds",
          "type": "error"
        },
        {
          "inputs": [
            {
              "internalType": "address",
              "name": "owner",
              "type": "address"
            }
          ],
          "name": "OwnableInvalidOwner",
          "type": "error"
        },
        {
          "inputs": [
            {
              "internalType": "address",
              "name": "account",
              "type": "address"
            }
          ],
          "name": "OwnableUnauthorizedAccount",
          "type": "error"
        },
        {
          "inputs": [],
          "name": "ReentrancyGuardReentrantCall",
          "type": "error"
        },
        {
          "inputs": [],
          "name": "TooManyRequests",
          "type": "error"
        },
        {
          "inputs": [
            {
              "internalType": "string",
              "name": "message",
              "type": "string"
            }
          ],
          "name": "TransferEther",
          "type": "error"
        },
        {
          "anonymous": false,
          "inputs": [
            {
              "indexed": true,
              "internalType": "uint256",
              "name": "_value",
              "type": "uint256"
            }
          ],
          "name": "FundFaucet",
          "type": "event"
        },
        {
          "anonymous": false,
          "inputs": [
            {
              "indexed": true,
              "internalType": "uint256",
              "name": "_unixTimestamp",
              "type": "uint256"
            }
          ],
          "name": "NextPossibleRequest",
          "type": "event"
        },
        {
          "anonymous": false,
          "inputs": [
            {
              "indexed": true,
              "internalType": "address",
              "name": "previousOwner",
              "type": "address"
            },
            {
              "indexed": true,
              "internalType": "address",
              "name": "newOwner",
              "type": "address"
            }
          ],
          "name": "OwnershipTransferred",
          "type": "event"
        },
        {
          "anonymous": false,
          "inputs": [
            {
              "indexed": true,
              "internalType": "uint256",
              "name": "_value",
              "type": "uint256"
            }
          ],
          "name": "UpdateWithdrawValue",
          "type": "event"
        },
        {
          "inputs": [],
          "name": "fundFaucet",
          "outputs": [],
          "stateMutability": "payable",
          "type": "function"
        },
        {
          "inputs": [],
          "name": "getLastCall",
          "outputs": [
            {
              "internalType": "uint256",
              "name": "",
              "type": "uint256"
            }
          ],
          "stateMutability": "view",
          "type": "function"
        },
        {
          "inputs": [],
          "name": "owner",
          "outputs": [
            {
              "internalType": "address",
              "name": "",
              "type": "address"
            }
          ],
          "stateMutability": "view",
          "type": "function"
        },
        {
          "inputs": [],
          "name": "renounceOwnership",
          "outputs": [],
          "stateMutability": "nonpayable",
          "type": "function"
        },
        {
          "inputs": [],
          "name": "requestEther",
          "outputs": [],
          "stateMutability": "payable",
          "type": "function"
        },
        {
          "inputs": [
            {
              "internalType": "address",
              "name": "newOwner",
              "type": "address"
            }
          ],
          "name": "transferOwnership",
          "outputs": [],
          "stateMutability": "nonpayable",
          "type": "function"
        },
        {
          "inputs": [
            {
              "internalType": "uint256",
              "name": "_value",
              "type": "uint256"
            }
          ],
          "name": "updateWithdrawableValue",
          "outputs": [],
          "stateMutability": "nonpayable",
          "type": "function"
        },
        {
          "inputs": [],
          "name": "withdrawableValue",
          "outputs": [
            {
              "internalType": "uint256",
              "name": "",
              "type": "uint256"
            }
          ],
          "stateMutability": "view",
          "type": "function"
        }
      ],
      "evm": {
        "bytecode": {
          "linkReferences": {},
          "object": "60806040526040516106f23803806106f2833981016040819052610022916100bb565b6001600055816001600160a01b03811661005657604051631e4fbdf760e01b81526000600482015260240160405180910390fd5b61005f81610069565b50600355506100f5565b600180546001600160a01b038381166001600160a01b0319831681179093556040519116919082907f8be0079c531659141344cd1fd0a4f28419497f9722a3daafe3b4186f6b6457e090600090a35050565b600080604083850312156100ce57600080fd5b82516001600160a01b03811681146100e557600080fd5b6020939093015192949293505050565b6105ee806101046000396000f3fe60806040526004361061007b5760003560e01c80636c7d3dcb1161004e5780636c7d3dcb146100dd578063715018a6146100fd5780638da5cb5b14610112578063f2fde38b1461014757600080fd5b80632959843a146100805780633ae6ced6146100a957806361ed4648146100cb5780636a211d6a146100d5575b600080fd5b34801561008c57600080fd5b5061009660035481565b6040519081526020015b60405180910390f35b3480156100b557600080fd5b5033600090815260026020526040902054610096565b6100d3610167565b005b6100d3610329565b3480156100e957600080fd5b506100d36100f8366004610528565b610356565b34801561010957600080fd5b506100d3610391565b34801561011e57600080fd5b5060015460405173ffffffffffffffffffffffffffffffffffffffff90911681526020016100a0565b34801561015357600080fd5b506100d3610162366004610541565b6103a3565b61016f610407565b6003544710156101bd576003546040517f5e04ace900000000000000000000000000000000000000000000000000000000815260048101919091524760248201526044015b60405180910390fd5b33600090815260026020526040902054426101d9603c8361057e565b101580156101e657508015155b1561021d576040517f056d634700000000000000000000000000000000000000000000000000000000815260040160405180910390fd5b336000818152600260205260408082204267ffffffffffffffff16905560035490519192918381818185875af1925050503d806000811461027a576040519150601f19603f3d011682016040523d82523d6000602084013e61027f565b606091505b50509050806102ea576040517ff0311d8c00000000000000000000000000000000000000000000000000000000815260206004820152601860248201527f5472616e73666572696e67204574686572206661696c6564000000000000000060448201526064016101b4565b6102f261044a565b6040517f4d02d92865c335787387f038e57e08f077f27fe04a7638b2060eeaa33acf8fcf90600090a250506103276001600055565b565b60405134907f6010a4bf0d19d126d1345bb6e6d094ffa7dd588d7597a02970e241460b1e476990600090a2565b61035e61045e565b600381905560405181907fcfb34416549446c93d73f1128caf722a9106ee6d02336c5997262440af7e200a90600090a250565b61039961045e565b61032760006104b1565b6103ab61045e565b73ffffffffffffffffffffffffffffffffffffffff81166103fb576040517f1e4fbdf7000000000000000000000000000000000000000000000000000000008152600060048201526024016101b4565b610404816104b1565b50565b600260005403610443576040517f3ee5aeb500000000000000000000000000000000000000000000000000000000815260040160405180910390fd5b6002600055565b600080610458603c4261057e565b92915050565b60015473ffffffffffffffffffffffffffffffffffffffff163314610327576040517f118cdaa70000000000000000000000000000000000000000000000000000000081523360048201526024016101b4565b6001805473ffffffffffffffffffffffffffffffffffffffff8381167fffffffffffffffffffffffff0000000000000000000000000000000000000000831681179093556040519116919082907f8be0079c531659141344cd1fd0a4f28419497f9722a3daafe3b4186f6b6457e090600090a35050565b60006020828403121561053a57600080fd5b5035919050565b60006020828403121561055357600080fd5b813573ffffffffffffffffffffffffffffffffffffffff8116811461057757600080fd5b9392505050565b80820180821115610458577f4e487b7100000000000000000000000000000000000000000000000000000000600052601160045260246000fdfea26469706673582212207b5fe721465077e88ae2f12fec6ce2744ad80a3a00424d070c615844b475a90b64736f6c63430008180033",
          "opcodes": "PUSH1 0x80 PUSH1 0x40 MSTORE PUSH1 0x40 MLOAD PUSH2 0x6F2 CODESIZE SUB DUP1 PUSH2 0x6F2 DUP4 CODECOPY DUP2 ADD PUSH1 0x40 DUP2 SWAP1 MSTORE PUSH2 0x22 SWAP2 PUSH2 0xBB JUMP JUMPDEST PUSH1 0x1 PUSH1 0x0 SSTORE DUP2 PUSH1 0x1 PUSH1 0x1 PUSH1 0xA0 SHL SUB DUP2 AND PUSH2 0x56 JUMPI PUSH1 0x40 MLOAD PUSH4 0x1E4FBDF7 PUSH1 0xE0 SHL DUP2 MSTORE PUSH1 0x0 PUSH1 0x4 DUP3 ADD MSTORE PUSH1 0x24 ADD PUSH1 0x40 MLOAD DUP1 SWAP2 SUB SWAP1 REVERT JUMPDEST PUSH2 0x5F DUP2 PUSH2 0x69 JUMP JUMPDEST POP PUSH1 0x3 SSTORE POP PUSH2 0xF5 JUMP JUMPDEST PUSH1 0x1 DUP1 SLOAD PUSH1 0x1 PUSH1 0x1 PUSH1 0xA0 SHL SUB DUP4 DUP2 AND PUSH1 0x1 PUSH1 0x1 PUSH1 0xA0 SHL SUB NOT DUP4 AND DUP2 OR SWAP1 SWAP4 SSTORE PUSH1 0x40 MLOAD SWAP2 AND SWAP2 SWAP1 DUP3 SWAP1 PUSH32 0x8BE0079C531659141344CD1FD0A4F28419497F9722A3DAAFE3B4186F6B6457E0 SWAP1 PUSH1 0x0 SWAP1 LOG3 POP POP JUMP JUMPDEST PUSH1 0x0 DUP1 PUSH1 0x40 DUP4 DUP6 SUB SLT ISZERO PUSH2 0xCE JUMPI PUSH1 0x0 DUP1 REVERT JUMPDEST DUP3 MLOAD PUSH1 0x1 PUSH1 0x1 PUSH1 0xA0 SHL SUB DUP2 AND DUP2 EQ PUSH2 0xE5 JUMPI PUSH1 0x0 DUP1 REVERT JUMPDEST PUSH1 0x20 SWAP4 SWAP1 SWAP4 ADD MLOAD SWAP3 SWAP5 SWAP3 SWAP4 POP POP POP JUMP JUMPDEST PUSH2 0x5EE DUP1 PUSH2 0x104 PUSH1 0x0 CODECOPY PUSH1 0x0 RETURN INVALID PUSH1 0x80 PUSH1 0x40 MSTORE PUSH1 0x4 CALLDATASIZE LT PUSH2 0x7B JUMPI PUSH1 0x0 CALLDATALOAD PUSH1 0xE0 SHR DUP1 PUSH4 0x6C7D3DCB GT PUSH2 0x4E JUMPI DUP1 PUSH4 0x6C7D3DCB EQ PUSH2 0xDD JUMPI DUP1 PUSH4 0x715018A6 EQ PUSH2 0xFD JUMPI DUP1 PUSH4 0x8DA5CB5B EQ PUSH2 0x112 JUMPI DUP1 PUSH4 0xF2FDE38B EQ PUSH2 0x147 JUMPI PUSH1 0x0 DUP1 REVERT JUMPDEST DUP1 PUSH4 0x2959843A EQ PUSH2 0x80 JUMPI DUP1 PUSH4 0x3AE6CED6 EQ PUSH2 0xA9 JUMPI DUP1 PUSH4 0x61ED4648 EQ PUSH2 0xCB JUMPI DUP1 PUSH4 0x6A211D6A EQ PUSH2 0xD5 JUMPI JUMPDEST PUSH1 0x0 DUP1 REVERT JUMPDEST CALLVALUE DUP1 ISZERO PUSH2 0x8C JUMPI PUSH1 0x0 DUP1 REVERT JUMPDEST POP PUSH2 0x96 PUSH1 0x3 SLOAD DUP2 JUMP JUMPDEST PUSH1 0x40 MLOAD SWAP1 DUP2 MSTORE PUSH1 0x20 ADD JUMPDEST PUSH1 0x40 MLOAD DUP1 SWAP2 SUB SWAP1 RETURN JUMPDEST CALLVALUE DUP1 ISZERO PUSH2 0xB5 JUMPI PUSH1 0x0 DUP1 REVERT JUMPDEST POP CALLER PUSH1 0x0 SWAP1 DUP2 MSTORE PUSH1 0x2 PUSH1 0x20 MSTORE PUSH1 0x40 SWAP1 KECCAK256 SLOAD PUSH2 0x96 JUMP JUMPDEST PUSH2 0xD3 PUSH2 0x167 JUMP JUMPDEST STOP JUMPDEST PUSH2 0xD3 PUSH2 0x329 JUMP JUMPDEST CALLVALUE DUP1 ISZERO PUSH2 0xE9 JUMPI PUSH1 0x0 DUP1 REVERT JUMPDEST POP PUSH2 0xD3 PUSH2 0xF8 CALLDATASIZE PUSH1 0x4 PUSH2 0x528 JUMP JUMPDEST PUSH2 0x356 JUMP JUMPDEST CALLVALUE DUP1 ISZERO PUSH2 0x109 JUMPI PUSH1 0x0 DUP1 REVERT JUMPDEST POP PUSH2 0xD3 PUSH2 0x391 JUMP JUMPDEST CALLVALUE DUP1 ISZERO PUSH2 0x11E JUMPI PUSH1 0x0 DUP1 REVERT JUMPDEST POP PUSH1 0x1 SLOAD PUSH1 0x40 MLOAD PUSH20 0xFFFFFFFFFFFFFFFFFFFFFFFFFFFFFFFFFFFFFFFF SWAP1 SWAP2 AND DUP2 MSTORE PUSH1 0x20 ADD PUSH2 0xA0 JUMP JUMPDEST CALLVALUE DUP1 ISZERO PUSH2 0x153 JUMPI PUSH1 0x0 DUP1 REVERT JUMPDEST POP PUSH2 0xD3 PUSH2 0x162 CALLDATASIZE PUSH1 0x4 PUSH2 0x541 JUMP JUMPDEST PUSH2 0x3A3 JUMP JUMPDEST PUSH2 0x16F PUSH2 0x407 JUMP JUMPDEST PUSH1 0x3 SLOAD SELFBALANCE LT ISZERO PUSH2 0x1BD JUMPI PUSH1 0x3 SLOAD PUSH1 0x40 MLOAD PUSH32 0x5E04ACE900000000000000000000000000000000000000000000000000000000 DUP2 MSTORE PUSH1 0x4 DUP2 ADD SWAP2 SWAP1 SWAP2 MSTORE SELFBALANCE PUSH1 0x24 DUP3 ADD MSTORE PUSH1 0x44 ADD JUMPDEST PUSH1 0x40 MLOAD DUP1 SWAP2 SUB SWAP1 REVERT JUMPDEST CALLER PUSH1 0x0 SWAP1 DUP2 MSTORE PUSH1 0x2 PUSH1 0x20 MSTORE PUSH1 0x40 SWAP1 KECCAK256 SLOAD TIMESTAMP PUSH2 0x1D9 PUSH1 0x3C DUP4 PUSH2 0x57E JUMP JUMPDEST LT ISZERO DUP1 ISZERO PUSH2 0x1E6 JUMPI POP DUP1 ISZERO ISZERO JUMPDEST ISZERO PUSH2 0x21D JUMPI PUSH1 0x40 MLOAD PUSH32 0x56D634700000000000000000000000000000000000000000000000000000000 DUP2 MSTORE PUSH1 0x4 ADD PUSH1 0x40 MLOAD DUP1 SWAP2 SUB SWAP1 REVERT JUMPDEST CALLER PUSH1 0x0 DUP2 DUP2 MSTORE PUSH1 0x2 PUSH1 0x20 MSTORE PUSH1 0x40 DUP1 DUP3 KECCAK256 TIMESTAMP PUSH8 0xFFFFFFFFFFFFFFFF AND SWAP1 SSTORE PUSH1 0x3 SLOAD SWAP1 MLOAD SWAP2 SWAP3 SWAP2 DUP4 DUP2 DUP2 DUP2 DUP6 DUP8 GAS CALL SWAP3 POP POP POP RETURNDATASIZE DUP1 PUSH1 0x0 DUP2 EQ PUSH2 0x27A JUMPI PUSH1 0x40 MLOAD SWAP2 POP PUSH1 0x1F NOT PUSH1 0x3F RETURNDATASIZE ADD AND DUP3 ADD PUSH1 0x40 MSTORE RETURNDATASIZE DUP3 MSTORE RETURNDATASIZE PUSH1 0x0 PUSH1 0x20 DUP5 ADD RETURNDATACOPY PUSH2 0x27F JUMP JUMPDEST PUSH1 0x60 SWAP2 POP JUMPDEST POP POP SWAP1 POP DUP1 PUSH2 0x2EA JUMPI PUSH1 0x40 MLOAD PUSH32 0xF0311D8C00000000000000000000000000000000000000000000000000000000 DUP2 MSTORE PUSH1 0x20 PUSH1 0x4 DUP3 ADD MSTORE PUSH1 0x18 PUSH1 0x24 DUP3 ADD MSTORE PUSH32 0x5472616E73666572696E67204574686572206661696C65640000000000000000 PUSH1 0x44 DUP3 ADD MSTORE PUSH1 0x64 ADD PUSH2 0x1B4 JUMP JUMPDEST PUSH2 0x2F2 PUSH2 0x44A JUMP JUMPDEST PUSH1 0x40 MLOAD PUSH32 0x4D02D92865C335787387F038E57E08F077F27FE04A7638B2060EEAA33ACF8FCF SWAP1 PUSH1 0x0 SWAP1 LOG2 POP POP PUSH2 0x327 PUSH1 0x1 PUSH1 0x0 SSTORE JUMP JUMPDEST JUMP JUMPDEST PUSH1 0x40 MLOAD CALLVALUE SWAP1 PUSH32 0x6010A4BF0D19D126D1345BB6E6D094FFA7DD588D7597A02970E241460B1E4769 SWAP1 PUSH1 0x0 SWAP1 LOG2 JUMP JUMPDEST PUSH2 0x35E PUSH2 0x45E JUMP JUMPDEST PUSH1 0x3 DUP2 SWAP1 SSTORE PUSH1 0x40 MLOAD DUP2 SWAP1 PUSH32 0xCFB34416549446C93D73F1128CAF722A9106EE6D02336C5997262440AF7E200A SWAP1 PUSH1 0x0 SWAP1 LOG2 POP JUMP JUMPDEST PUSH2 0x399 PUSH2 0x45E JUMP JUMPDEST PUSH2 0x327 PUSH1 0x0 PUSH2 0x4B1 JUMP JUMPDEST PUSH2 0x3AB PUSH2 0x45E JUMP JUMPDEST PUSH20 0xFFFFFFFFFFFFFFFFFFFFFFFFFFFFFFFFFFFFFFFF DUP2 AND PUSH2 0x3FB JUMPI PUSH1 0x40 MLOAD PUSH32 0x1E4FBDF700000000000000000000000000000000000000000000000000000000 DUP2 MSTORE PUSH1 0x0 PUSH1 0x4 DUP3 ADD MSTORE PUSH1 0x24 ADD PUSH2 0x1B4 JUMP JUMPDEST PUSH2 0x404 DUP2 PUSH2 0x4B1 JUMP JUMPDEST POP JUMP JUMPDEST PUSH1 0x2 PUSH1 0x0 SLOAD SUB PUSH2 0x443 JUMPI PUSH1 0x40 MLOAD PUSH32 0x3EE5AEB500000000000000000000000000000000000000000000000000000000 DUP2 MSTORE PUSH1 0x4 ADD PUSH1 0x40 MLOAD DUP1 SWAP2 SUB SWAP1 REVERT JUMPDEST PUSH1 0x2 PUSH1 0x0 SSTORE JUMP JUMPDEST PUSH1 0x0 DUP1 PUSH2 0x458 PUSH1 0x3C TIMESTAMP PUSH2 0x57E JUMP JUMPDEST SWAP3 SWAP2 POP POP JUMP JUMPDEST PUSH1 0x1 SLOAD PUSH20 0xFFFFFFFFFFFFFFFFFFFFFFFFFFFFFFFFFFFFFFFF AND CALLER EQ PUSH2 0x327 JUMPI PUSH1 0x40 MLOAD PUSH32 0x118CDAA700000000000000000000000000000000000000000000000000000000 DUP2 MSTORE CALLER PUSH1 0x4 DUP3 ADD MSTORE PUSH1 0x24 ADD PUSH2 0x1B4 JUMP JUMPDEST PUSH1 0x1 DUP1 SLOAD PUSH20 0xFFFFFFFFFFFFFFFFFFFFFFFFFFFFFFFFFFFFFFFF DUP4 DUP2 AND PUSH32 0xFFFFFFFFFFFFFFFFFFFFFFFF0000000000000000000000000000000000000000 DUP4 AND DUP2 OR SWAP1 SWAP4 SSTORE PUSH1 0x40 MLOAD SWAP2 AND SWAP2 SWAP1 DUP3 SWAP1 PUSH32 0x8BE0079C531659141344CD1FD0A4F28419497F9722A3DAAFE3B4186F6B6457E0 SWAP1 PUSH1 0x0 SWAP1 LOG3 POP POP JUMP JUMPDEST PUSH1 0x0 PUSH1 0x20 DUP3 DUP5 SUB SLT ISZERO PUSH2 0x53A JUMPI PUSH1 0x0 DUP1 REVERT JUMPDEST POP CALLDATALOAD SWAP2 SWAP1 POP JUMP JUMPDEST PUSH1 0x0 PUSH1 0x20 DUP3 DUP5 SUB SLT ISZERO PUSH2 0x553 JUMPI PUSH1 0x0 DUP1 REVERT JUMPDEST DUP2 CALLDATALOAD PUSH20 0xFFFFFFFFFFFFFFFFFFFFFFFFFFFFFFFFFFFFFFFF DUP2 AND DUP2 EQ PUSH2 0x577 JUMPI PUSH1 0x0 DUP1 REVERT JUMPDEST SWAP4 SWAP3 POP POP POP JUMP JUMPDEST DUP1 DUP3 ADD DUP1 DUP3 GT ISZERO PUSH2 0x458 JUMPI PUSH32 0x4E487B7100000000000000000000000000000000000000000000000000000000 PUSH1 0x0 MSTORE PUSH1 0x11 PUSH1 0x4 MSTORE PUSH1 0x24 PUSH1 0x0 REVERT INVALID LOG2 PUSH5 0x6970667358 0x22 SLT KECCAK256 PUSH28 0x5FE721465077E88AE2F12FEC6CE2744AD80A3A00424D070C615844B4 PUSH22 0xA90B64736F6C63430008180033000000000000000000 "
        },
        "methodIdentifiers": {
          "fundFaucet()": "6a211d6a",
          "getLastCall()": "3ae6ced6",
          "owner()": "8da5cb5b",
          "renounceOwnership()": "715018a6",
          "requestEther()": "61ed4648",
          "transferOwnership(address)": "f2fde38b",
          "updateWithdrawableValue(uint256)": "6c7d3dcb",
          "withdrawableValue()": "2959843a"
        }
      }
    }
  }
}