{
  "_format": "hh-sol-artifact-1",
  "contractName": "Counter",
  "sourceName": "contracts/Counter.sol",
  "abi": [
    {
      "inputs": [],
      "name": "counter",
      "outputs": [
        {
          "internalType": "uint256",
          "name": "",
          "type": "uint256"
        }
      ],
      "stateMutability": "view",
      "type": "function"
    },
    {
      "inputs": [],
      "name": "decrement",
      "outputs": [],
      "stateMutability": "nonpayable",
      "type": "function"
    },
    {
      "inputs": [],
      "name": "getCounter",
      "outputs": [
        {
          "internalType": "uint256",
          "name": "",
          "type": "uint256"
        }
      ],
      "stateMutability": "view",
      "type": "function"
    },
    {
      "inputs": [],
      "name": "increment",
      "outputs": [],
      "stateMutability": "nonpayable",
      "type": "function"
    },
    {
      "inputs": [],
      "name": "resetCounter",
      "outputs": [],
      "stateMutability": "nonpayable",
      "type": "function"
    },
    {
      "inputs": [
        {
          "internalType": "uint256",
          "name": "_counter",
          "type": "uint256"
        }
      ],
      "name": "setCounter",
      "outputs": [],
      "stateMutability": "nonpayable",
      "type": "function"
    }
  ],
  "bytecode": "0x608060405234801561001057600080fd5b506101d8806100206000396000f3fe608060405234801561001057600080fd5b50600436106100725760003560e01c80638bb5d9c3116100505780638bb5d9c3146100a4578063d09de08a146100b7578063dbdf7fce146100bf57600080fd5b80632baeceb71461007757806361bc221a146100815780638ada066e1461009c575b600080fd5b61007f6100c8565b005b61008a60005481565b60405190815260200160405180910390f35b60005461008a565b61007f6100b23660046100ed565b600055565b61007f6100de565b61007f60008055565b6000805490806100d783610135565b9190505550565b6000805490806100d78361016a565b6000602082840312156100ff57600080fd5b5035919050565b7f4e487b7100000000000000000000000000000000000000000000000000000000600052601160045260246000fd5b60008161014457610144610106565b507fffffffffffffffffffffffffffffffffffffffffffffffffffffffffffffffff0190565b60007fffffffffffffffffffffffffffffffffffffffffffffffffffffffffffffffff820361019b5761019b610106565b506001019056fea26469706673582212203e9fc813dd3749c62cdad6cf22cbb1e32f82cd1691ef7507a744583b7e580cec64736f6c63430008180033",
  "linkReferences": {},
  "deployedLinkReferences": {}
}